{
	"contracts/PIDR_test.sol": {
		"PIDR_test": {
			"abi": [
				{
					"inputs": [
						{
							"internalType": "address",
							"name": "_newOwner",
							"type": "address"
						}
					],
					"name": "changeOwner",
					"outputs": [],
					"stateMutability": "payable",
					"type": "function"
				},
				{
					"inputs": [],
					"name": "getIdArtwork",
					"outputs": [
						{
							"internalType": "uint256",
							"name": "",
							"type": "uint256"
						}
					],
					"stateMutability": "view",
					"type": "function"
				},
				{
					"inputs": [],
					"name": "getOwner",
					"outputs": [
						{
							"internalType": "address",
							"name": "",
							"type": "address"
						}
					],
					"stateMutability": "view",
					"type": "function"
				}
			],
			"devdoc": {
				"kind": "dev",
				"methods": {},
				"version": 1
			},
			"evm": {
				"assembly": "    /* \"contracts/PIDR_test.sol\":72:1035  contract PIDR_test {... */\n  mstore(0x40, 0x80)\n    /* \"contracts/PIDR_test.sol\":112:113  0 */\n  0x00\n    /* \"contracts/PIDR_test.sol\":100:113  uint seed = 0 */\n  dup1\n  sstore\n    /* \"contracts/PIDR_test.sol\":137:147  0.01 ether */\n  0x2386f26fc10000\n    /* \"contracts/PIDR_test.sol\":120:147  uint salePrice = 0.01 ether */\n  0x01\n  sstore\n    /* \"contracts/PIDR_test.sol\":72:1035  contract PIDR_test {... */\n  callvalue\n  dup1\n  iszero\n  tag_1\n  jumpi\n  0x00\n  dup1\n  revert\ntag_1:\n  pop\n  dataSize(sub_0)\n  dup1\n  dataOffset(sub_0)\n  0x00\n  codecopy\n  0x00\n  return\nstop\n\nsub_0: assembly {\n        /* \"contracts/PIDR_test.sol\":72:1035  contract PIDR_test {... */\n      mstore(0x40, 0x80)\n      jumpi(tag_1, lt(calldatasize, 0x04))\n      shr(0xe0, calldataload(0x00))\n      dup1\n      0x893d20e8\n      eq\n      tag_2\n      jumpi\n      dup1\n      0xa6f9dae1\n      eq\n      tag_3\n      jumpi\n      dup1\n      0xa94e8ec0\n      eq\n      tag_4\n      jumpi\n    tag_1:\n      0x00\n      dup1\n      revert\n        /* \"contracts/PIDR_test.sol\":940:1030  function getOwner() external view returns(address) {... */\n    tag_2:\n      callvalue\n      dup1\n      iszero\n      tag_5\n      jumpi\n      0x00\n      dup1\n      revert\n    tag_5:\n      pop\n      tag_6\n      tag_7\n      jump\t// in\n    tag_6:\n      mload(0x40)\n      tag_8\n      swap2\n      swap1\n      tag_9\n      jump\t// in\n    tag_8:\n      mload(0x40)\n      dup1\n      swap2\n      sub\n      swap1\n      return\n        /* \"contracts/PIDR_test.sol\":654:829  function changeOwner(address _newOwner) external payable ownerOnly {... */\n    tag_3:\n      tag_10\n      0x04\n      dup1\n      calldatasize\n      sub\n      dup2\n      add\n      swap1\n      tag_11\n      swap2\n      swap1\n      tag_12\n      jump\t// in\n    tag_11:\n      tag_13\n      jump\t// in\n    tag_10:\n      stop\n        /* \"contracts/PIDR_test.sol\":837:932  function getIdArtwork() external view returns(uint) {... */\n    tag_4:\n      callvalue\n      dup1\n      iszero\n      tag_14\n      jumpi\n      0x00\n      dup1\n      revert\n    tag_14:\n      pop\n      tag_15\n      tag_16\n      jump\t// in\n    tag_15:\n      mload(0x40)\n      tag_17\n      swap2\n      swap1\n      tag_18\n      jump\t// in\n    tag_17:\n      mload(0x40)\n      dup1\n      swap2\n      sub\n      swap1\n      return\n        /* \"contracts/PIDR_test.sol\":940:1030  function getOwner() external view returns(address) {... */\n    tag_7:\n        /* \"contracts/PIDR_test.sol\":982:989  address */\n      0x00\n        /* \"contracts/PIDR_test.sol\":1009:1016  artwork */\n      0x02\n        /* \"contracts/PIDR_test.sol\":1009:1022  artwork.owner */\n      0x01\n      add\n      0x00\n      swap1\n      sload\n      swap1\n      0x0100\n      exp\n      swap1\n      div\n      0xffffffffffffffffffffffffffffffffffffffff\n      and\n        /* \"contracts/PIDR_test.sol\":1002:1022  return artwork.owner */\n      swap1\n      pop\n        /* \"contracts/PIDR_test.sol\":940:1030  function getOwner() external view returns(address) {... */\n      swap1\n      jump\t// out\n        /* \"contracts/PIDR_test.sol\":654:829  function changeOwner(address _newOwner) external payable ownerOnly {... */\n    tag_13:\n        /* \"contracts/PIDR_test.sol\":210:217  artwork */\n      0x02\n        /* \"contracts/PIDR_test.sol\":210:223  artwork.owner */\n      0x01\n      add\n      0x00\n      swap1\n      sload\n      swap1\n      0x0100\n      exp\n      swap1\n      div\n      0xffffffffffffffffffffffffffffffffffffffff\n      and\n        /* \"contracts/PIDR_test.sol\":196:223  msg.sender == artwork.owner */\n      0xffffffffffffffffffffffffffffffffffffffff\n      and\n        /* \"contracts/PIDR_test.sol\":196:206  msg.sender */\n      caller\n        /* \"contracts/PIDR_test.sol\":196:223  msg.sender == artwork.owner */\n      0xffffffffffffffffffffffffffffffffffffffff\n      and\n      eq\n        /* \"contracts/PIDR_test.sol\":188:224  require(msg.sender == artwork.owner) */\n      tag_21\n      jumpi\n      0x00\n      dup1\n      revert\n    tag_21:\n        /* \"contracts/PIDR_test.sol\":753:762  salePrice */\n      sload(0x01)\n        /* \"contracts/PIDR_test.sol\":740:749  msg.value */\n      callvalue\n        /* \"contracts/PIDR_test.sol\":740:762  msg.value == salePrice */\n      eq\n        /* \"contracts/PIDR_test.sol\":732:763  require(msg.value == salePrice) */\n      tag_23\n      jumpi\n      0x00\n      dup1\n      revert\n    tag_23:\n        /* \"contracts/PIDR_test.sol\":790:799  _newOwner */\n      dup1\n        /* \"contracts/PIDR_test.sol\":774:781  artwork */\n      0x02\n        /* \"contracts/PIDR_test.sol\":774:787  artwork.owner */\n      0x01\n      add\n      0x00\n        /* \"contracts/PIDR_test.sol\":774:799  artwork.owner = _newOwner */\n      0x0100\n      exp\n      dup2\n      sload\n      dup2\n      0xffffffffffffffffffffffffffffffffffffffff\n      mul\n      not\n      and\n      swap1\n      dup4\n      0xffffffffffffffffffffffffffffffffffffffff\n      and\n      mul\n      or\n      swap1\n      sstore\n      pop\n        /* \"contracts/PIDR_test.sol\":810:821  _changeID() */\n      tag_24\n        /* \"contracts/PIDR_test.sol\":810:819  _changeID */\n      tag_25\n        /* \"contracts/PIDR_test.sol\":810:821  _changeID() */\n      jump\t// in\n    tag_24:\n        /* \"contracts/PIDR_test.sol\":654:829  function changeOwner(address _newOwner) external payable ownerOnly {... */\n      pop\n      jump\t// out\n        /* \"contracts/PIDR_test.sol\":837:932  function getIdArtwork() external view returns(uint) {... */\n    tag_16:\n        /* \"contracts/PIDR_test.sol\":883:887  uint */\n      0x00\n        /* \"contracts/PIDR_test.sol\":907:914  artwork */\n      0x02\n        /* \"contracts/PIDR_test.sol\":907:924  artwork.idArtwork */\n      0x00\n      add\n      sload\n        /* \"contracts/PIDR_test.sol\":900:924  return artwork.idArtwork */\n      swap1\n      pop\n        /* \"contracts/PIDR_test.sol\":837:932  function getIdArtwork() external view returns(uint) {... */\n      swap1\n      jump\t// out\n        /* \"contracts/PIDR_test.sol\":561:646  function _changeID() private {... */\n    tag_25:\n        /* \"contracts/PIDR_test.sol\":621:638  _generateRandom() */\n      tag_28\n        /* \"contracts/PIDR_test.sol\":621:636  _generateRandom */\n      tag_29\n        /* \"contracts/PIDR_test.sol\":621:638  _generateRandom() */\n      jump\t// in\n    tag_28:\n        /* \"contracts/PIDR_test.sol\":601:608  artwork */\n      0x02\n        /* \"contracts/PIDR_test.sol\":601:618  artwork.idArtwork */\n      0x00\n      add\n        /* \"contracts/PIDR_test.sol\":601:638  artwork.idArtwork = _generateRandom() */\n      dup2\n      swap1\n      sstore\n      pop\n        /* \"contracts/PIDR_test.sol\":561:646  function _changeID() private {... */\n      jump\t// out\n        /* \"contracts/PIDR_test.sol\":364:553  function _generateRandom() private returns (uint) {... */\n    tag_29:\n        /* \"contracts/PIDR_test.sol\":408:412  uint */\n      0x00\n        /* \"contracts/PIDR_test.sol\":425:434  uint rand */\n      dup1\n        /* \"contracts/PIDR_test.sol\":469:484  block.timestamp */\n      timestamp\n        /* \"contracts/PIDR_test.sol\":486:496  msg.sender */\n      caller\n        /* \"contracts/PIDR_test.sol\":498:502  seed */\n      sload(0x00)\n        /* \"contracts/PIDR_test.sol\":452:503  abi.encodePacked(block.timestamp, msg.sender, seed) */\n      add(0x20, mload(0x40))\n      tag_31\n      swap4\n      swap3\n      swap2\n      swap1\n      tag_32\n      jump\t// in\n    tag_31:\n      mload(0x40)\n      0x20\n      dup2\n      dup4\n      sub\n      sub\n      dup2\n      mstore\n      swap1\n      0x40\n      mstore\n        /* \"contracts/PIDR_test.sol\":442:504  keccak256(abi.encodePacked(block.timestamp, msg.sender, seed)) */\n      dup1\n      mload\n      swap1\n      0x20\n      add\n      keccak256\n        /* \"contracts/PIDR_test.sol\":437:505  uint(keccak256(abi.encodePacked(block.timestamp, msg.sender, seed))) */\n      0x00\n      shr\n        /* \"contracts/PIDR_test.sol\":425:505  uint rand = uint(keccak256(abi.encodePacked(block.timestamp, msg.sender, seed))) */\n      swap1\n      pop\n        /* \"contracts/PIDR_test.sol\":516:520  seed */\n      0x00\n      dup1\n        /* \"contracts/PIDR_test.sol\":516:523  seed ++ */\n      dup2\n      sload\n      dup1\n      swap3\n      swap2\n      swap1\n      tag_33\n      swap1\n      tag_34\n      jump\t// in\n    tag_33:\n      swap2\n      swap1\n      pop\n      sstore\n      pop\n        /* \"contracts/PIDR_test.sol\":541:545  rand */\n      dup1\n        /* \"contracts/PIDR_test.sol\":534:545  return rand */\n      swap2\n      pop\n      pop\n        /* \"contracts/PIDR_test.sol\":364:553  function _generateRandom() private returns (uint) {... */\n      swap1\n      jump\t// out\n        /* \"#utility.yul\":7:133   */\n    tag_35:\n        /* \"#utility.yul\":44:51   */\n      0x00\n        /* \"#utility.yul\":84:126   */\n      0xffffffffffffffffffffffffffffffffffffffff\n        /* \"#utility.yul\":77:82   */\n      dup3\n        /* \"#utility.yul\":73:127   */\n      and\n        /* \"#utility.yul\":62:127   */\n      swap1\n      pop\n        /* \"#utility.yul\":7:133   */\n      swap2\n      swap1\n      pop\n      jump\t// out\n        /* \"#utility.yul\":139:235   */\n    tag_36:\n        /* \"#utility.yul\":176:183   */\n      0x00\n        /* \"#utility.yul\":205:229   */\n      tag_55\n        /* \"#utility.yul\":223:228   */\n      dup3\n        /* \"#utility.yul\":205:229   */\n      tag_35\n      jump\t// in\n    tag_55:\n        /* \"#utility.yul\":194:229   */\n      swap1\n      pop\n        /* \"#utility.yul\":139:235   */\n      swap2\n      swap1\n      pop\n      jump\t// out\n        /* \"#utility.yul\":241:359   */\n    tag_37:\n        /* \"#utility.yul\":328:352   */\n      tag_57\n        /* \"#utility.yul\":346:351   */\n      dup2\n        /* \"#utility.yul\":328:352   */\n      tag_36\n      jump\t// in\n    tag_57:\n        /* \"#utility.yul\":323:326   */\n      dup3\n        /* \"#utility.yul\":316:353   */\n      mstore\n        /* \"#utility.yul\":241:359   */\n      pop\n      pop\n      jump\t// out\n        /* \"#utility.yul\":365:587   */\n    tag_9:\n        /* \"#utility.yul\":458:462   */\n      0x00\n        /* \"#utility.yul\":496:498   */\n      0x20\n        /* \"#utility.yul\":485:494   */\n      dup3\n        /* \"#utility.yul\":481:499   */\n      add\n        /* \"#utility.yul\":473:499   */\n      swap1\n      pop\n        /* \"#utility.yul\":509:580   */\n      tag_59\n        /* \"#utility.yul\":577:578   */\n      0x00\n        /* \"#utility.yul\":566:575   */\n      dup4\n        /* \"#utility.yul\":562:579   */\n      add\n        /* \"#utility.yul\":553:559   */\n      dup5\n        /* \"#utility.yul\":509:580   */\n      tag_37\n      jump\t// in\n    tag_59:\n        /* \"#utility.yul\":365:587   */\n      swap3\n      swap2\n      pop\n      pop\n      jump\t// out\n        /* \"#utility.yul\":674:791   */\n    tag_39:\n        /* \"#utility.yul\":783:784   */\n      0x00\n        /* \"#utility.yul\":780:781   */\n      dup1\n        /* \"#utility.yul\":773:785   */\n      revert\n        /* \"#utility.yul\":920:1042   */\n    tag_41:\n        /* \"#utility.yul\":993:1017   */\n      tag_64\n        /* \"#utility.yul\":1011:1016   */\n      dup2\n        /* \"#utility.yul\":993:1017   */\n      tag_36\n      jump\t// in\n    tag_64:\n        /* \"#utility.yul\":986:991   */\n      dup2\n        /* \"#utility.yul\":983:1018   */\n      eq\n        /* \"#utility.yul\":973:1036   */\n      tag_65\n      jumpi\n        /* \"#utility.yul\":1032:1033   */\n      0x00\n        /* \"#utility.yul\":1029:1030   */\n      dup1\n        /* \"#utility.yul\":1022:1034   */\n      revert\n        /* \"#utility.yul\":973:1036   */\n    tag_65:\n        /* \"#utility.yul\":920:1042   */\n      pop\n      jump\t// out\n        /* \"#utility.yul\":1048:1187   */\n    tag_42:\n        /* \"#utility.yul\":1094:1099   */\n      0x00\n        /* \"#utility.yul\":1132:1138   */\n      dup2\n        /* \"#utility.yul\":1119:1139   */\n      calldataload\n        /* \"#utility.yul\":1110:1139   */\n      swap1\n      pop\n        /* \"#utility.yul\":1148:1181   */\n      tag_67\n        /* \"#utility.yul\":1175:1180   */\n      dup2\n        /* \"#utility.yul\":1148:1181   */\n      tag_41\n      jump\t// in\n    tag_67:\n        /* \"#utility.yul\":1048:1187   */\n      swap3\n      swap2\n      pop\n      pop\n      jump\t// out\n        /* \"#utility.yul\":1193:1522   */\n    tag_12:\n        /* \"#utility.yul\":1252:1258   */\n      0x00\n        /* \"#utility.yul\":1301:1303   */\n      0x20\n        /* \"#utility.yul\":1289:1298   */\n      dup3\n        /* \"#utility.yul\":1280:1287   */\n      dup5\n        /* \"#utility.yul\":1276:1299   */\n      sub\n        /* \"#utility.yul\":1272:1304   */\n      slt\n        /* \"#utility.yul\":1269:1388   */\n      iszero\n      tag_69\n      jumpi\n        /* \"#utility.yul\":1307:1386   */\n      tag_70\n      tag_39\n      jump\t// in\n    tag_70:\n        /* \"#utility.yul\":1269:1388   */\n    tag_69:\n        /* \"#utility.yul\":1427:1428   */\n      0x00\n        /* \"#utility.yul\":1452:1505   */\n      tag_71\n        /* \"#utility.yul\":1497:1504   */\n      dup5\n        /* \"#utility.yul\":1488:1494   */\n      dup3\n        /* \"#utility.yul\":1477:1486   */\n      dup6\n        /* \"#utility.yul\":1473:1495   */\n      add\n        /* \"#utility.yul\":1452:1505   */\n      tag_42\n      jump\t// in\n    tag_71:\n        /* \"#utility.yul\":1442:1505   */\n      swap2\n      pop\n        /* \"#utility.yul\":1398:1515   */\n      pop\n        /* \"#utility.yul\":1193:1522   */\n      swap3\n      swap2\n      pop\n      pop\n      jump\t// out\n        /* \"#utility.yul\":1528:1605   */\n    tag_43:\n        /* \"#utility.yul\":1565:1572   */\n      0x00\n        /* \"#utility.yul\":1594:1599   */\n      dup2\n        /* \"#utility.yul\":1583:1599   */\n      swap1\n      pop\n        /* \"#utility.yul\":1528:1605   */\n      swap2\n      swap1\n      pop\n      jump\t// out\n        /* \"#utility.yul\":1611:1729   */\n    tag_44:\n        /* \"#utility.yul\":1698:1722   */\n      tag_74\n        /* \"#utility.yul\":1716:1721   */\n      dup2\n        /* \"#utility.yul\":1698:1722   */\n      tag_43\n      jump\t// in\n    tag_74:\n        /* \"#utility.yul\":1693:1696   */\n      dup3\n        /* \"#utility.yul\":1686:1723   */\n      mstore\n        /* \"#utility.yul\":1611:1729   */\n      pop\n      pop\n      jump\t// out\n        /* \"#utility.yul\":1735:1957   */\n    tag_18:\n        /* \"#utility.yul\":1828:1832   */\n      0x00\n        /* \"#utility.yul\":1866:1868   */\n      0x20\n        /* \"#utility.yul\":1855:1864   */\n      dup3\n        /* \"#utility.yul\":1851:1869   */\n      add\n        /* \"#utility.yul\":1843:1869   */\n      swap1\n      pop\n        /* \"#utility.yul\":1879:1950   */\n      tag_76\n        /* \"#utility.yul\":1947:1948   */\n      0x00\n        /* \"#utility.yul\":1936:1945   */\n      dup4\n        /* \"#utility.yul\":1932:1949   */\n      add\n        /* \"#utility.yul\":1923:1929   */\n      dup5\n        /* \"#utility.yul\":1879:1950   */\n      tag_44\n      jump\t// in\n    tag_76:\n        /* \"#utility.yul\":1735:1957   */\n      swap3\n      swap2\n      pop\n      pop\n      jump\t// out\n        /* \"#utility.yul\":1963:2042   */\n    tag_45:\n        /* \"#utility.yul\":2002:2009   */\n      0x00\n        /* \"#utility.yul\":2031:2036   */\n      dup2\n        /* \"#utility.yul\":2020:2036   */\n      swap1\n      pop\n        /* \"#utility.yul\":1963:2042   */\n      swap2\n      swap1\n      pop\n      jump\t// out\n        /* \"#utility.yul\":2048:2205   */\n    tag_46:\n        /* \"#utility.yul\":2153:2198   */\n      tag_79\n        /* \"#utility.yul\":2173:2197   */\n      tag_80\n        /* \"#utility.yul\":2191:2196   */\n      dup3\n        /* \"#utility.yul\":2173:2197   */\n      tag_43\n      jump\t// in\n    tag_80:\n        /* \"#utility.yul\":2153:2198   */\n      tag_45\n      jump\t// in\n    tag_79:\n        /* \"#utility.yul\":2148:2151   */\n      dup3\n        /* \"#utility.yul\":2141:2199   */\n      mstore\n        /* \"#utility.yul\":2048:2205   */\n      pop\n      pop\n      jump\t// out\n        /* \"#utility.yul\":2211:2305   */\n    tag_47:\n        /* \"#utility.yul\":2244:2252   */\n      0x00\n        /* \"#utility.yul\":2292:2297   */\n      dup2\n        /* \"#utility.yul\":2288:2290   */\n      0x60\n        /* \"#utility.yul\":2284:2298   */\n      shl\n        /* \"#utility.yul\":2263:2298   */\n      swap1\n      pop\n        /* \"#utility.yul\":2211:2305   */\n      swap2\n      swap1\n      pop\n      jump\t// out\n        /* \"#utility.yul\":2311:2405   */\n    tag_48:\n        /* \"#utility.yul\":2350:2357   */\n      0x00\n        /* \"#utility.yul\":2379:2399   */\n      tag_83\n        /* \"#utility.yul\":2393:2398   */\n      dup3\n        /* \"#utility.yul\":2379:2399   */\n      tag_47\n      jump\t// in\n    tag_83:\n        /* \"#utility.yul\":2368:2399   */\n      swap1\n      pop\n        /* \"#utility.yul\":2311:2405   */\n      swap2\n      swap1\n      pop\n      jump\t// out\n        /* \"#utility.yul\":2411:2511   */\n    tag_49:\n        /* \"#utility.yul\":2450:2457   */\n      0x00\n        /* \"#utility.yul\":2479:2505   */\n      tag_85\n        /* \"#utility.yul\":2499:2504   */\n      dup3\n        /* \"#utility.yul\":2479:2505   */\n      tag_48\n      jump\t// in\n    tag_85:\n        /* \"#utility.yul\":2468:2505   */\n      swap1\n      pop\n        /* \"#utility.yul\":2411:2511   */\n      swap2\n      swap1\n      pop\n      jump\t// out\n        /* \"#utility.yul\":2517:2674   */\n    tag_50:\n        /* \"#utility.yul\":2622:2667   */\n      tag_87\n        /* \"#utility.yul\":2642:2666   */\n      tag_88\n        /* \"#utility.yul\":2660:2665   */\n      dup3\n        /* \"#utility.yul\":2642:2666   */\n      tag_36\n      jump\t// in\n    tag_88:\n        /* \"#utility.yul\":2622:2667   */\n      tag_49\n      jump\t// in\n    tag_87:\n        /* \"#utility.yul\":2617:2620   */\n      dup3\n        /* \"#utility.yul\":2610:2668   */\n      mstore\n        /* \"#utility.yul\":2517:2674   */\n      pop\n      pop\n      jump\t// out\n        /* \"#utility.yul\":2680:3218   */\n    tag_32:\n        /* \"#utility.yul\":2848:2851   */\n      0x00\n        /* \"#utility.yul\":2863:2938   */\n      tag_90\n        /* \"#utility.yul\":2934:2937   */\n      dup3\n        /* \"#utility.yul\":2925:2931   */\n      dup7\n        /* \"#utility.yul\":2863:2938   */\n      tag_46\n      jump\t// in\n    tag_90:\n        /* \"#utility.yul\":2963:2965   */\n      0x20\n        /* \"#utility.yul\":2958:2961   */\n      dup3\n        /* \"#utility.yul\":2954:2966   */\n      add\n        /* \"#utility.yul\":2947:2966   */\n      swap2\n      pop\n        /* \"#utility.yul\":2976:3051   */\n      tag_91\n        /* \"#utility.yul\":3047:3050   */\n      dup3\n        /* \"#utility.yul\":3038:3044   */\n      dup6\n        /* \"#utility.yul\":2976:3051   */\n      tag_50\n      jump\t// in\n    tag_91:\n        /* \"#utility.yul\":3076:3078   */\n      0x14\n        /* \"#utility.yul\":3071:3074   */\n      dup3\n        /* \"#utility.yul\":3067:3079   */\n      add\n        /* \"#utility.yul\":3060:3079   */\n      swap2\n      pop\n        /* \"#utility.yul\":3089:3164   */\n      tag_92\n        /* \"#utility.yul\":3160:3163   */\n      dup3\n        /* \"#utility.yul\":3151:3157   */\n      dup5\n        /* \"#utility.yul\":3089:3164   */\n      tag_46\n      jump\t// in\n    tag_92:\n        /* \"#utility.yul\":3189:3191   */\n      0x20\n        /* \"#utility.yul\":3184:3187   */\n      dup3\n        /* \"#utility.yul\":3180:3192   */\n      add\n        /* \"#utility.yul\":3173:3192   */\n      swap2\n      pop\n        /* \"#utility.yul\":3209:3212   */\n      dup2\n        /* \"#utility.yul\":3202:3212   */\n      swap1\n      pop\n        /* \"#utility.yul\":2680:3218   */\n      swap5\n      swap4\n      pop\n      pop\n      pop\n      pop\n      jump\t// out\n        /* \"#utility.yul\":3224:3404   */\n    tag_51:\n        /* \"#utility.yul\":3272:3349   */\n      0x4e487b7100000000000000000000000000000000000000000000000000000000\n        /* \"#utility.yul\":3269:3270   */\n      0x00\n        /* \"#utility.yul\":3262:3350   */\n      mstore\n        /* \"#utility.yul\":3369:3373   */\n      0x11\n        /* \"#utility.yul\":3366:3367   */\n      0x04\n        /* \"#utility.yul\":3359:3374   */\n      mstore\n        /* \"#utility.yul\":3393:3397   */\n      0x24\n        /* \"#utility.yul\":3390:3391   */\n      0x00\n        /* \"#utility.yul\":3383:3398   */\n      revert\n        /* \"#utility.yul\":3410:3643   */\n    tag_34:\n        /* \"#utility.yul\":3449:3452   */\n      0x00\n        /* \"#utility.yul\":3472:3496   */\n      tag_95\n        /* \"#utility.yul\":3490:3495   */\n      dup3\n        /* \"#utility.yul\":3472:3496   */\n      tag_43\n      jump\t// in\n    tag_95:\n        /* \"#utility.yul\":3463:3496   */\n      swap2\n      pop\n        /* \"#utility.yul\":3518:3584   */\n      0xffffffffffffffffffffffffffffffffffffffffffffffffffffffffffffffff\n        /* \"#utility.yul\":3511:3516   */\n      dup3\n        /* \"#utility.yul\":3508:3585   */\n      sub\n        /* \"#utility.yul\":3505:3608   */\n      tag_96\n      jumpi\n        /* \"#utility.yul\":3588:3606   */\n      tag_97\n      tag_51\n      jump\t// in\n    tag_97:\n        /* \"#utility.yul\":3505:3608   */\n    tag_96:\n        /* \"#utility.yul\":3635:3636   */\n      0x01\n        /* \"#utility.yul\":3628:3633   */\n      dup3\n        /* \"#utility.yul\":3624:3637   */\n      add\n        /* \"#utility.yul\":3617:3637   */\n      swap1\n      pop\n        /* \"#utility.yul\":3410:3643   */\n      swap2\n      swap1\n      pop\n      jump\t// out\n\n    auxdata: 0xa2646970667358221220c1b8ce5c1ae5aa0cab422b60b5c90282dbeb711234f6133ae02207135840e55b64736f6c63430008120033\n}\n",
				"bytecode": {
					"linkReferences": {},
					"object": "608060405260008055662386f26fc1000060015534801561001f57600080fd5b506104468061002f6000396000f3fe6080604052600436106100345760003560e01c8063893d20e814610039578063a6f9dae114610064578063a94e8ec014610080575b600080fd5b34801561004557600080fd5b5061004e6100ab565b60405161005b9190610246565b60405180910390f35b61007e60048036038101906100799190610292565b6100d8565b005b34801561008c57600080fd5b50610095610192565b6040516100a291906102d8565b60405180910390f35b6000600260010160009054906101000a900473ffffffffffffffffffffffffffffffffffffffff16905090565b600260010160009054906101000a900473ffffffffffffffffffffffffffffffffffffffff1673ffffffffffffffffffffffffffffffffffffffff163373ffffffffffffffffffffffffffffffffffffffff161461013557600080fd5b600154341461014357600080fd5b80600260010160006101000a81548173ffffffffffffffffffffffffffffffffffffffff021916908373ffffffffffffffffffffffffffffffffffffffff16021790555061018f61019f565b50565b6000600260000154905090565b6101a76101b2565b600260000181905550565b60008042336000546040516020016101cc9392919061035c565b6040516020818303038152906040528051906020012060001c90506000808154809291906101f9906103c8565b91905055508091505090565b600073ffffffffffffffffffffffffffffffffffffffff82169050919050565b600061023082610205565b9050919050565b61024081610225565b82525050565b600060208201905061025b6000830184610237565b92915050565b600080fd5b61026f81610225565b811461027a57600080fd5b50565b60008135905061028c81610266565b92915050565b6000602082840312156102a8576102a7610261565b5b60006102b68482850161027d565b91505092915050565b6000819050919050565b6102d2816102bf565b82525050565b60006020820190506102ed60008301846102c9565b92915050565b6000819050919050565b61030e610309826102bf565b6102f3565b82525050565b60008160601b9050919050565b600061032c82610314565b9050919050565b600061033e82610321565b9050919050565b61035661035182610225565b610333565b82525050565b600061036882866102fd565b6020820191506103788285610345565b60148201915061038882846102fd565b602082019150819050949350505050565b7f4e487b7100000000000000000000000000000000000000000000000000000000600052601160045260246000fd5b60006103d3826102bf565b91507fffffffffffffffffffffffffffffffffffffffffffffffffffffffffffffffff820361040557610404610399565b5b60018201905091905056fea2646970667358221220c1b8ce5c1ae5aa0cab422b60b5c90282dbeb711234f6133ae02207135840e55b64736f6c63430008120033",
					"opcodes": "PUSH1 0x80 PUSH1 0x40 MSTORE PUSH1 0x0 DUP1 SSTORE PUSH7 0x2386F26FC10000 PUSH1 0x1 SSTORE CALLVALUE DUP1 ISZERO PUSH2 0x1F JUMPI PUSH1 0x0 DUP1 REVERT JUMPDEST POP PUSH2 0x446 DUP1 PUSH2 0x2F PUSH1 0x0 CODECOPY PUSH1 0x0 RETURN INVALID PUSH1 0x80 PUSH1 0x40 MSTORE PUSH1 0x4 CALLDATASIZE LT PUSH2 0x34 JUMPI PUSH1 0x0 CALLDATALOAD PUSH1 0xE0 SHR DUP1 PUSH4 0x893D20E8 EQ PUSH2 0x39 JUMPI DUP1 PUSH4 0xA6F9DAE1 EQ PUSH2 0x64 JUMPI DUP1 PUSH4 0xA94E8EC0 EQ PUSH2 0x80 JUMPI JUMPDEST PUSH1 0x0 DUP1 REVERT JUMPDEST CALLVALUE DUP1 ISZERO PUSH2 0x45 JUMPI PUSH1 0x0 DUP1 REVERT JUMPDEST POP PUSH2 0x4E PUSH2 0xAB JUMP JUMPDEST PUSH1 0x40 MLOAD PUSH2 0x5B SWAP2 SWAP1 PUSH2 0x246 JUMP JUMPDEST PUSH1 0x40 MLOAD DUP1 SWAP2 SUB SWAP1 RETURN JUMPDEST PUSH2 0x7E PUSH1 0x4 DUP1 CALLDATASIZE SUB DUP2 ADD SWAP1 PUSH2 0x79 SWAP2 SWAP1 PUSH2 0x292 JUMP JUMPDEST PUSH2 0xD8 JUMP JUMPDEST STOP JUMPDEST CALLVALUE DUP1 ISZERO PUSH2 0x8C JUMPI PUSH1 0x0 DUP1 REVERT JUMPDEST POP PUSH2 0x95 PUSH2 0x192 JUMP JUMPDEST PUSH1 0x40 MLOAD PUSH2 0xA2 SWAP2 SWAP1 PUSH2 0x2D8 JUMP JUMPDEST PUSH1 0x40 MLOAD DUP1 SWAP2 SUB SWAP1 RETURN JUMPDEST PUSH1 0x0 PUSH1 0x2 PUSH1 0x1 ADD PUSH1 0x0 SWAP1 SLOAD SWAP1 PUSH2 0x100 EXP SWAP1 DIV PUSH20 0xFFFFFFFFFFFFFFFFFFFFFFFFFFFFFFFFFFFFFFFF AND SWAP1 POP SWAP1 JUMP JUMPDEST PUSH1 0x2 PUSH1 0x1 ADD PUSH1 0x0 SWAP1 SLOAD SWAP1 PUSH2 0x100 EXP SWAP1 DIV PUSH20 0xFFFFFFFFFFFFFFFFFFFFFFFFFFFFFFFFFFFFFFFF AND PUSH20 0xFFFFFFFFFFFFFFFFFFFFFFFFFFFFFFFFFFFFFFFF AND CALLER PUSH20 0xFFFFFFFFFFFFFFFFFFFFFFFFFFFFFFFFFFFFFFFF AND EQ PUSH2 0x135 JUMPI PUSH1 0x0 DUP1 REVERT JUMPDEST PUSH1 0x1 SLOAD CALLVALUE EQ PUSH2 0x143 JUMPI PUSH1 0x0 DUP1 REVERT JUMPDEST DUP1 PUSH1 0x2 PUSH1 0x1 ADD PUSH1 0x0 PUSH2 0x100 EXP DUP2 SLOAD DUP2 PUSH20 0xFFFFFFFFFFFFFFFFFFFFFFFFFFFFFFFFFFFFFFFF MUL NOT AND SWAP1 DUP4 PUSH20 0xFFFFFFFFFFFFFFFFFFFFFFFFFFFFFFFFFFFFFFFF AND MUL OR SWAP1 SSTORE POP PUSH2 0x18F PUSH2 0x19F JUMP JUMPDEST POP JUMP JUMPDEST PUSH1 0x0 PUSH1 0x2 PUSH1 0x0 ADD SLOAD SWAP1 POP SWAP1 JUMP JUMPDEST PUSH2 0x1A7 PUSH2 0x1B2 JUMP JUMPDEST PUSH1 0x2 PUSH1 0x0 ADD DUP2 SWAP1 SSTORE POP JUMP JUMPDEST PUSH1 0x0 DUP1 TIMESTAMP CALLER PUSH1 0x0 SLOAD PUSH1 0x40 MLOAD PUSH1 0x20 ADD PUSH2 0x1CC SWAP4 SWAP3 SWAP2 SWAP1 PUSH2 0x35C JUMP JUMPDEST PUSH1 0x40 MLOAD PUSH1 0x20 DUP2 DUP4 SUB SUB DUP2 MSTORE SWAP1 PUSH1 0x40 MSTORE DUP1 MLOAD SWAP1 PUSH1 0x20 ADD KECCAK256 PUSH1 0x0 SHR SWAP1 POP PUSH1 0x0 DUP1 DUP2 SLOAD DUP1 SWAP3 SWAP2 SWAP1 PUSH2 0x1F9 SWAP1 PUSH2 0x3C8 JUMP JUMPDEST SWAP2 SWAP1 POP SSTORE POP DUP1 SWAP2 POP POP SWAP1 JUMP JUMPDEST PUSH1 0x0 PUSH20 0xFFFFFFFFFFFFFFFFFFFFFFFFFFFFFFFFFFFFFFFF DUP3 AND SWAP1 POP SWAP2 SWAP1 POP JUMP JUMPDEST PUSH1 0x0 PUSH2 0x230 DUP3 PUSH2 0x205 JUMP JUMPDEST SWAP1 POP SWAP2 SWAP1 POP JUMP JUMPDEST PUSH2 0x240 DUP2 PUSH2 0x225 JUMP JUMPDEST DUP3 MSTORE POP POP JUMP JUMPDEST PUSH1 0x0 PUSH1 0x20 DUP3 ADD SWAP1 POP PUSH2 0x25B PUSH1 0x0 DUP4 ADD DUP5 PUSH2 0x237 JUMP JUMPDEST SWAP3 SWAP2 POP POP JUMP JUMPDEST PUSH1 0x0 DUP1 REVERT JUMPDEST PUSH2 0x26F DUP2 PUSH2 0x225 JUMP JUMPDEST DUP2 EQ PUSH2 0x27A JUMPI PUSH1 0x0 DUP1 REVERT JUMPDEST POP JUMP JUMPDEST PUSH1 0x0 DUP2 CALLDATALOAD SWAP1 POP PUSH2 0x28C DUP2 PUSH2 0x266 JUMP JUMPDEST SWAP3 SWAP2 POP POP JUMP JUMPDEST PUSH1 0x0 PUSH1 0x20 DUP3 DUP5 SUB SLT ISZERO PUSH2 0x2A8 JUMPI PUSH2 0x2A7 PUSH2 0x261 JUMP JUMPDEST JUMPDEST PUSH1 0x0 PUSH2 0x2B6 DUP5 DUP3 DUP6 ADD PUSH2 0x27D JUMP JUMPDEST SWAP2 POP POP SWAP3 SWAP2 POP POP JUMP JUMPDEST PUSH1 0x0 DUP2 SWAP1 POP SWAP2 SWAP1 POP JUMP JUMPDEST PUSH2 0x2D2 DUP2 PUSH2 0x2BF JUMP JUMPDEST DUP3 MSTORE POP POP JUMP JUMPDEST PUSH1 0x0 PUSH1 0x20 DUP3 ADD SWAP1 POP PUSH2 0x2ED PUSH1 0x0 DUP4 ADD DUP5 PUSH2 0x2C9 JUMP JUMPDEST SWAP3 SWAP2 POP POP JUMP JUMPDEST PUSH1 0x0 DUP2 SWAP1 POP SWAP2 SWAP1 POP JUMP JUMPDEST PUSH2 0x30E PUSH2 0x309 DUP3 PUSH2 0x2BF JUMP JUMPDEST PUSH2 0x2F3 JUMP JUMPDEST DUP3 MSTORE POP POP JUMP JUMPDEST PUSH1 0x0 DUP2 PUSH1 0x60 SHL SWAP1 POP SWAP2 SWAP1 POP JUMP JUMPDEST PUSH1 0x0 PUSH2 0x32C DUP3 PUSH2 0x314 JUMP JUMPDEST SWAP1 POP SWAP2 SWAP1 POP JUMP JUMPDEST PUSH1 0x0 PUSH2 0x33E DUP3 PUSH2 0x321 JUMP JUMPDEST SWAP1 POP SWAP2 SWAP1 POP JUMP JUMPDEST PUSH2 0x356 PUSH2 0x351 DUP3 PUSH2 0x225 JUMP JUMPDEST PUSH2 0x333 JUMP JUMPDEST DUP3 MSTORE POP POP JUMP JUMPDEST PUSH1 0x0 PUSH2 0x368 DUP3 DUP7 PUSH2 0x2FD JUMP JUMPDEST PUSH1 0x20 DUP3 ADD SWAP2 POP PUSH2 0x378 DUP3 DUP6 PUSH2 0x345 JUMP JUMPDEST PUSH1 0x14 DUP3 ADD SWAP2 POP PUSH2 0x388 DUP3 DUP5 PUSH2 0x2FD JUMP JUMPDEST PUSH1 0x20 DUP3 ADD SWAP2 POP DUP2 SWAP1 POP SWAP5 SWAP4 POP POP POP POP JUMP JUMPDEST PUSH32 0x4E487B7100000000000000000000000000000000000000000000000000000000 PUSH1 0x0 MSTORE PUSH1 0x11 PUSH1 0x4 MSTORE PUSH1 0x24 PUSH1 0x0 REVERT JUMPDEST PUSH1 0x0 PUSH2 0x3D3 DUP3 PUSH2 0x2BF JUMP JUMPDEST SWAP2 POP PUSH32 0xFFFFFFFFFFFFFFFFFFFFFFFFFFFFFFFFFFFFFFFFFFFFFFFFFFFFFFFFFFFFFFFF DUP3 SUB PUSH2 0x405 JUMPI PUSH2 0x404 PUSH2 0x399 JUMP JUMPDEST JUMPDEST PUSH1 0x1 DUP3 ADD SWAP1 POP SWAP2 SWAP1 POP JUMP INVALID LOG2 PUSH5 0x6970667358 0x22 SLT KECCAK256 0xC1 0xB8 0xCE 0x5C BYTE 0xE5 0xAA 0xC 0xAB TIMESTAMP 0x2B PUSH1 0xB5 0xC9 MUL DUP3 0xDB 0xEB PUSH18 0x1234F6133AE02207135840E55B64736F6C63 NUMBER STOP ADDMOD SLT STOP CALLER "
				},
				"gasEstimates": {
					"creation": {
						"codeDepositCost": "218800",
						"executionCost": "27375",
						"totalCost": "246175"
					},
					"external": {
						"changeOwner(address)": "infinite",
						"getIdArtwork()": "2465",
						"getOwner()": "2506"
					},
					"internal": {
						"_changeID()": "infinite",
						"_generateRandom()": "infinite"
					}
				},
				"methodIdentifiers": {
					"changeOwner(address)": "a6f9dae1",
					"getIdArtwork()": "a94e8ec0",
					"getOwner()": "893d20e8"
				}
			},
			"storageLayout": {
				"storage": [
					{
						"astId": 4,
						"contract": "contracts/PIDR_test.sol:PIDR_test",
						"label": "seed",
						"offset": 0,
						"slot": "0",
						"type": "t_uint256"
					},
					{
						"astId": 7,
						"contract": "contracts/PIDR_test.sol:PIDR_test",
						"label": "salePrice",
						"offset": 0,
						"slot": "1",
						"type": "t_uint256"
					},
					{
						"astId": 27,
						"contract": "contracts/PIDR_test.sol:PIDR_test",
						"label": "artwork",
						"offset": 0,
						"slot": "2",
						"type": "t_struct(Artwork)24_storage"
					}
				],
				"types": {
					"t_address": {
						"encoding": "inplace",
						"label": "address",
						"numberOfBytes": "20"
					},
					"t_struct(Artwork)24_storage": {
						"encoding": "inplace",
						"label": "struct PIDR_test.Artwork",
						"members": [
							{
								"astId": 21,
								"contract": "contracts/PIDR_test.sol:PIDR_test",
								"label": "idArtwork",
								"offset": 0,
								"slot": "0",
								"type": "t_uint256"
							},
							{
								"astId": 23,
								"contract": "contracts/PIDR_test.sol:PIDR_test",
								"label": "owner",
								"offset": 0,
								"slot": "1",
								"type": "t_address"
							}
						],
						"numberOfBytes": "64"
					},
					"t_uint256": {
						"encoding": "inplace",
						"label": "uint256",
						"numberOfBytes": "32"
					}
				}
			},
			"userdoc": {
				"kind": "user",
				"methods": {},
				"version": 1
			}
		}
	}
}